{
  "_format": "hh-sol-artifact-1",
  "contractName": "MyNFT",
  "sourceName": "contracts/MyNFT.sol",
  "abi": [
    {
      "inputs": [],
      "stateMutability": "nonpayable",
      "type": "constructor"
    },
    {
      "anonymous": false,
      "inputs": [
        {
          "indexed": true,
          "internalType": "address",
          "name": "owner",
          "type": "address"
        },
        {
          "indexed": true,
          "internalType": "address",
          "name": "approved",
          "type": "address"
        },
        {
          "indexed": true,
          "internalType": "uint256",
          "name": "tokenId",
          "type": "uint256"
        }
      ],
      "name": "Approval",
      "type": "event"
    },
    {
      "anonymous": false,
      "inputs": [
        {
          "indexed": true,
          "internalType": "address",
          "name": "owner",
          "type": "address"
        },
        {
          "indexed": true,
          "internalType": "address",
          "name": "operator",
          "type": "address"
        },
        {
          "indexed": false,
          "internalType": "bool",
          "name": "approved",
          "type": "bool"
        }
      ],
      "name": "ApprovalForAll",
      "type": "event"
    },
    {
      "anonymous": false,
      "inputs": [
        {
          "indexed": false,
          "internalType": "uint256",
          "name": "_fromTokenId",
          "type": "uint256"
        },
        {
          "indexed": false,
          "internalType": "uint256",
          "name": "_toTokenId",
          "type": "uint256"
        }
      ],
      "name": "BatchMetadataUpdate",
      "type": "event"
    },
    {
      "anonymous": false,
      "inputs": [
        {
          "indexed": false,
          "internalType": "uint256",
          "name": "_tokenId",
          "type": "uint256"
        }
      ],
      "name": "MetadataUpdate",
      "type": "event"
    },
    {
      "anonymous": false,
      "inputs": [
        {
          "indexed": true,
          "internalType": "address",
          "name": "previousOwner",
          "type": "address"
        },
        {
          "indexed": true,
          "internalType": "address",
          "name": "newOwner",
          "type": "address"
        }
      ],
      "name": "OwnershipTransferred",
      "type": "event"
    },
    {
      "anonymous": false,
      "inputs": [
        {
          "indexed": true,
          "internalType": "address",
          "name": "from",
          "type": "address"
        },
        {
          "indexed": true,
          "internalType": "address",
          "name": "to",
          "type": "address"
        },
        {
          "indexed": true,
          "internalType": "uint256",
          "name": "tokenId",
          "type": "uint256"
        }
      ],
      "name": "Transfer",
      "type": "event"
    },
    {
      "inputs": [
        {
          "internalType": "address",
          "name": "to",
          "type": "address"
        },
        {
          "internalType": "uint256",
          "name": "tokenId",
          "type": "uint256"
        }
      ],
      "name": "approve",
      "outputs": [],
      "stateMutability": "nonpayable",
      "type": "function"
    },
    {
      "inputs": [
        {
          "internalType": "address",
          "name": "owner",
          "type": "address"
        }
      ],
      "name": "balanceOf",
      "outputs": [
        {
          "internalType": "uint256",
          "name": "",
          "type": "uint256"
        }
      ],
      "stateMutability": "view",
      "type": "function"
    },
    {
      "inputs": [
        {
          "internalType": "uint256",
          "name": "tokenId",
          "type": "uint256"
        }
      ],
      "name": "burn",
      "outputs": [],
      "stateMutability": "nonpayable",
      "type": "function"
    },
    {
      "inputs": [
        {
          "internalType": "uint256",
          "name": "tokenId",
          "type": "uint256"
        }
      ],
      "name": "burnNFT",
      "outputs": [],
      "stateMutability": "nonpayable",
      "type": "function"
    },
    {
      "inputs": [
        {
          "internalType": "uint256",
          "name": "tokenId",
          "type": "uint256"
        }
      ],
      "name": "getApproved",
      "outputs": [
        {
          "internalType": "address",
          "name": "",
          "type": "address"
        }
      ],
      "stateMutability": "view",
      "type": "function"
    },
    {
      "inputs": [
        {
          "internalType": "address",
          "name": "owner",
          "type": "address"
        },
        {
          "internalType": "address",
          "name": "operator",
          "type": "address"
        }
      ],
      "name": "isApprovedForAll",
      "outputs": [
        {
          "internalType": "bool",
          "name": "",
          "type": "bool"
        }
      ],
      "stateMutability": "view",
      "type": "function"
    },
    {
      "inputs": [
        {
          "internalType": "address",
          "name": "recipient",
          "type": "address"
        },
        {
          "internalType": "string",
          "name": "uri",
          "type": "string"
        }
      ],
      "name": "mintNFT",
      "outputs": [
        {
          "internalType": "uint256",
          "name": "",
          "type": "uint256"
        }
      ],
      "stateMutability": "nonpayable",
      "type": "function"
    },
    {
      "inputs": [],
      "name": "name",
      "outputs": [
        {
          "internalType": "string",
          "name": "",
          "type": "string"
        }
      ],
      "stateMutability": "view",
      "type": "function"
    },
    {
      "inputs": [],
      "name": "owner",
      "outputs": [
        {
          "internalType": "address",
          "name": "",
          "type": "address"
        }
      ],
      "stateMutability": "view",
      "type": "function"
    },
    {
      "inputs": [
        {
          "internalType": "uint256",
          "name": "tokenId",
          "type": "uint256"
        }
      ],
      "name": "ownerOf",
      "outputs": [
        {
          "internalType": "address",
          "name": "",
          "type": "address"
        }
      ],
      "stateMutability": "view",
      "type": "function"
    },
    {
      "inputs": [],
      "name": "renounceOwnership",
      "outputs": [],
      "stateMutability": "nonpayable",
      "type": "function"
    },
    {
      "inputs": [
        {
          "internalType": "address",
          "name": "from",
          "type": "address"
        },
        {
          "internalType": "address",
          "name": "to",
          "type": "address"
        },
        {
          "internalType": "uint256",
          "name": "tokenId",
          "type": "uint256"
        }
      ],
      "name": "safeTransferFrom",
      "outputs": [],
      "stateMutability": "nonpayable",
      "type": "function"
    },
    {
      "inputs": [
        {
          "internalType": "address",
          "name": "from",
          "type": "address"
        },
        {
          "internalType": "address",
          "name": "to",
          "type": "address"
        },
        {
          "internalType": "uint256",
          "name": "tokenId",
          "type": "uint256"
        },
        {
          "internalType": "bytes",
          "name": "data",
          "type": "bytes"
        }
      ],
      "name": "safeTransferFrom",
      "outputs": [],
      "stateMutability": "nonpayable",
      "type": "function"
    },
    {
      "inputs": [
        {
          "internalType": "address",
          "name": "operator",
          "type": "address"
        },
        {
          "internalType": "bool",
          "name": "approved",
          "type": "bool"
        }
      ],
      "name": "setApprovalForAll",
      "outputs": [],
      "stateMutability": "nonpayable",
      "type": "function"
    },
    {
      "inputs": [
        {
          "internalType": "bytes4",
          "name": "interfaceId",
          "type": "bytes4"
        }
      ],
      "name": "supportsInterface",
      "outputs": [
        {
          "internalType": "bool",
          "name": "",
          "type": "bool"
        }
      ],
      "stateMutability": "view",
      "type": "function"
    },
    {
      "inputs": [],
      "name": "symbol",
      "outputs": [
        {
          "internalType": "string",
          "name": "",
          "type": "string"
        }
      ],
      "stateMutability": "view",
      "type": "function"
    },
    {
      "inputs": [
        {
          "internalType": "uint256",
          "name": "tokenId",
          "type": "uint256"
        }
      ],
      "name": "tokenURI",
      "outputs": [
        {
          "internalType": "string",
          "name": "",
          "type": "string"
        }
      ],
      "stateMutability": "view",
      "type": "function"
    },
    {
      "inputs": [
        {
          "internalType": "address",
          "name": "from",
          "type": "address"
        },
        {
          "internalType": "address",
          "name": "to",
          "type": "address"
        },
        {
          "internalType": "uint256",
          "name": "tokenId",
          "type": "uint256"
        }
      ],
      "name": "transferFrom",
      "outputs": [],
      "stateMutability": "nonpayable",
      "type": "function"
    },
    {
      "inputs": [
        {
          "internalType": "address",
          "name": "newOwner",
          "type": "address"
        }
      ],
      "name": "transferOwnership",
      "outputs": [],
      "stateMutability": "nonpayable",
      "type": "function"
    }
  ],
  "bytecode": "0x608060405234801561001057600080fd5b506040518060400160405280600881526020017f4d7920546f6b656e0000000000000000000000000000000000000000000000008152506040518060400160405280600181526020017f4700000000000000000000000000000000000000000000000000000000000000815250816000908161008c91906103de565b50806001908161009c91906103de565b5050506100bb6100b06100c060201b60201c565b6100c860201b60201c565b6104b0565b600033905090565b6000600760009054906101000a900473ffffffffffffffffffffffffffffffffffffffff16905081600760006101000a81548173ffffffffffffffffffffffffffffffffffffffff021916908373ffffffffffffffffffffffffffffffffffffffff1602179055508173ffffffffffffffffffffffffffffffffffffffff168173ffffffffffffffffffffffffffffffffffffffff167f8be0079c531659141344cd1fd0a4f28419497f9722a3daafe3b4186f6b6457e060405160405180910390a35050565b600081519050919050565b7f4e487b7100000000000000000000000000000000000000000000000000000000600052604160045260246000fd5b7f4e487b7100000000000000000000000000000000000000000000000000000000600052602260045260246000fd5b6000600282049050600182168061020f57607f821691505b602082108103610222576102216101c8565b5b50919050565b60008190508160005260206000209050919050565b60006020601f8301049050919050565b600082821b905092915050565b60006008830261028a7fffffffffffffffffffffffffffffffffffffffffffffffffffffffffffffffff8261024d565b610294868361024d565b95508019841693508086168417925050509392505050565b6000819050919050565b6000819050919050565b60006102db6102d66102d1846102ac565b6102b6565b6102ac565b9050919050565b6000819050919050565b6102f5836102c0565b610309610301826102e2565b84845461025a565b825550505050565b600090565b61031e610311565b6103298184846102ec565b505050565b5b8181101561034d57610342600082610316565b60018101905061032f565b5050565b601f8211156103925761036381610228565b61036c8461023d565b8101602085101561037b578190505b61038f6103878561023d565b83018261032e565b50505b505050565b600082821c905092915050565b60006103b560001984600802610397565b1980831691505092915050565b60006103ce83836103a4565b9150826002028217905092915050565b6103e78261018e565b67ffffffffffffffff811115610400576103ff610199565b5b61040a82546101f7565b610415828285610351565b600060209050601f8311600181146104485760008415610436578287015190505b61044085826103c2565b8655506104a8565b601f19841661045686610228565b60005b8281101561047e57848901518255600182019150602085019450602081019050610459565b8683101561049b5784890151610497601f8916826103a4565b8355505b6001600288020188555050505b505050505050565b61325a806104bf6000396000f3fe608060405234801561001057600080fd5b50600436106101215760003560e01c806370a08231116100ad578063b88d4fde11610071578063b88d4fde146102f2578063c87b56dd1461030e578063e985e9c51461033e578063eacabe141461036e578063f2fde38b1461039e57610121565b806370a0823114610260578063715018a6146102905780638da5cb5b1461029a57806395d89b41146102b8578063a22cb465146102d657610121565b806323b872dd116100f457806323b872dd146101c05780632890e0d7146101dc57806342842e0e146101f857806342966c68146102145780636352211e1461023057610121565b806301ffc9a71461012657806306fdde0314610156578063081812fc14610174578063095ea7b3146101a4575b600080fd5b610140600480360381019061013b9190611fb9565b6103ba565b60405161014d9190612001565b60405180910390f35b61015e6103cc565b60405161016b91906120ac565b60405180910390f35b61018e60048036038101906101899190612104565b61045e565b60405161019b9190612172565b60405180910390f35b6101be60048036038101906101b991906121b9565b6104a4565b005b6101da60048036038101906101d591906121f9565b6105bb565b005b6101f660048036038101906101f19190612104565b61061b565b005b610212600480360381019061020d91906121f9565b6106bb565b005b61022e60048036038101906102299190612104565b6106db565b005b61024a60048036038101906102459190612104565b610737565b6040516102579190612172565b60405180910390f35b61027a6004803603810190610275919061224c565b6107bd565b6040516102879190612288565b60405180910390f35b610298610874565b005b6102a2610888565b6040516102af9190612172565b60405180910390f35b6102c06108b2565b6040516102cd91906120ac565b60405180910390f35b6102f060048036038101906102eb91906122cf565b610944565b005b61030c60048036038101906103079190612444565b61095a565b005b61032860048036038101906103239190612104565b6109bc565b60405161033591906120ac565b60405180910390f35b610358600480360381019061035391906124c7565b6109ce565b6040516103659190612001565b60405180910390f35b610388600480360381019061038391906125a8565b610a62565b6040516103959190612288565b60405180910390f35b6103b860048036038101906103b3919061224c565b610aa2565b005b60006103c582610b25565b9050919050565b6060600080546103db90612633565b80601f016020809104026020016040519081016040528092919081815260200182805461040790612633565b80156104545780601f1061042957610100808354040283529160200191610454565b820191906000526020600020905b81548152906001019060200180831161043757829003601f168201915b5050505050905090565b600061046982610b86565b6004600083815260200190815260200160002060009054906101000a900473ffffffffffffffffffffffffffffffffffffffff169050919050565b60006104af82610737565b90508073ffffffffffffffffffffffffffffffffffffffff168373ffffffffffffffffffffffffffffffffffffffff160361051f576040517f08c379a0000000000000000000000000000000000000000000000000000000008152600401610516906126d6565b60405180910390fd5b8073ffffffffffffffffffffffffffffffffffffffff1661053e610bd1565b73ffffffffffffffffffffffffffffffffffffffff16148061056d575061056c81610567610bd1565b6109ce565b5b6105ac576040517f08c379a00000000000000000000000000000000000000000000000000000000081526004016105a390612768565b60405180910390fd5b6105b68383610bd9565b505050565b6105cc6105c6610bd1565b82610c92565b61060b576040517f08c379a0000000000000000000000000000000000000000000000000000000008152600401610602906127fa565b60405180910390fd5b610616838383610d27565b505050565b61062c610626610bd1565b82610c92565b80610670575061063a610bd1565b73ffffffffffffffffffffffffffffffffffffffff16610658610888565b73ffffffffffffffffffffffffffffffffffffffff16145b6106af576040517f08c379a00000000000000000000000000000000000000000000000000000000081526004016106a69061288c565b60405180910390fd5b6106b881611020565b50565b6106d68383836040518060200160405280600081525061095a565b505050565b6106ec6106e6610bd1565b82610c92565b61072b576040517f08c379a0000000000000000000000000000000000000000000000000000000008152600401610722906127fa565b60405180910390fd5b61073481611020565b50565b6000806107438361102c565b9050600073ffffffffffffffffffffffffffffffffffffffff168173ffffffffffffffffffffffffffffffffffffffff16036107b4576040517f08c379a00000000000000000000000000000000000000000000000000000000081526004016107ab906128f8565b60405180910390fd5b80915050919050565b60008073ffffffffffffffffffffffffffffffffffffffff168273ffffffffffffffffffffffffffffffffffffffff160361082d576040517f08c379a00000000000000000000000000000000000000000000000000000000081526004016108249061298a565b60405180910390fd5b600360008373ffffffffffffffffffffffffffffffffffffffff1673ffffffffffffffffffffffffffffffffffffffff168152602001908152602001600020549050919050565b61087c611069565b61088660006110e7565b565b6000600760009054906101000a900473ffffffffffffffffffffffffffffffffffffffff16905090565b6060600180546108c190612633565b80601f01602080910402602001604051908101604052809291908181526020018280546108ed90612633565b801561093a5780601f1061090f5761010080835404028352916020019161093a565b820191906000526020600020905b81548152906001019060200180831161091d57829003601f168201915b5050505050905090565b61095661094f610bd1565b83836111ad565b5050565b61096b610965610bd1565b83610c92565b6109aa576040517f08c379a00000000000000000000000000000000000000000000000000000000081526004016109a1906127fa565b60405180910390fd5b6109b684848484611319565b50505050565b60606109c782611375565b9050919050565b6000600560008473ffffffffffffffffffffffffffffffffffffffff1673ffffffffffffffffffffffffffffffffffffffff16815260200190815260200160002060008373ffffffffffffffffffffffffffffffffffffffff1673ffffffffffffffffffffffffffffffffffffffff16815260200190815260200160002060009054906101000a900460ff16905092915050565b6000610a6c611069565b610a766008611487565b6000610a82600861149d565b9050610a8e84826114ab565b610a9881846116c8565b8091505092915050565b610aaa611069565b600073ffffffffffffffffffffffffffffffffffffffff168173ffffffffffffffffffffffffffffffffffffffff1603610b19576040517f08c379a0000000000000000000000000000000000000000000000000000000008152600401610b1090612a1c565b60405180910390fd5b610b22816110e7565b50565b6000634906490660e01b7bffffffffffffffffffffffffffffffffffffffffffffffffffffffff1916827bffffffffffffffffffffffffffffffffffffffffffffffffffffffff19161480610b7f5750610b7e8261176c565b5b9050919050565b610b8f8161184e565b610bce576040517f08c379a0000000000000000000000000000000000000000000000000000000008152600401610bc5906128f8565b60405180910390fd5b50565b600033905090565b816004600083815260200190815260200160002060006101000a81548173ffffffffffffffffffffffffffffffffffffffff021916908373ffffffffffffffffffffffffffffffffffffffff160217905550808273ffffffffffffffffffffffffffffffffffffffff16610c4c83610737565b73ffffffffffffffffffffffffffffffffffffffff167f8c5be1e5ebec7d5bd14f71427d1e84f3dd0314c0f7b2291e5b200ac8c7c3b92560405160405180910390a45050565b600080610c9e83610737565b90508073ffffffffffffffffffffffffffffffffffffffff168473ffffffffffffffffffffffffffffffffffffffff161480610ce05750610cdf81856109ce565b5b80610d1e57508373ffffffffffffffffffffffffffffffffffffffff16610d068461045e565b73ffffffffffffffffffffffffffffffffffffffff16145b91505092915050565b8273ffffffffffffffffffffffffffffffffffffffff16610d4782610737565b73ffffffffffffffffffffffffffffffffffffffff1614610d9d576040517f08c379a0000000000000000000000000000000000000000000000000000000008152600401610d9490612aae565b60405180910390fd5b600073ffffffffffffffffffffffffffffffffffffffff168273ffffffffffffffffffffffffffffffffffffffff1603610e0c576040517f08c379a0000000000000000000000000000000000000000000000000000000008152600401610e0390612b40565b60405180910390fd5b610e19838383600161188f565b8273ffffffffffffffffffffffffffffffffffffffff16610e3982610737565b73ffffffffffffffffffffffffffffffffffffffff1614610e8f576040517f08c379a0000000000000000000000000000000000000000000000000000000008152600401610e8690612aae565b60405180910390fd5b6004600082815260200190815260200160002060006101000a81549073ffffffffffffffffffffffffffffffffffffffff02191690556001600360008573ffffffffffffffffffffffffffffffffffffffff1673ffffffffffffffffffffffffffffffffffffffff168152602001908152602001600020600082825403925050819055506001600360008473ffffffffffffffffffffffffffffffffffffffff1673ffffffffffffffffffffffffffffffffffffffff16815260200190815260200160002060008282540192505081905550816002600083815260200190815260200160002060006101000a81548173ffffffffffffffffffffffffffffffffffffffff021916908373ffffffffffffffffffffffffffffffffffffffff160217905550808273ffffffffffffffffffffffffffffffffffffffff168473ffffffffffffffffffffffffffffffffffffffff167fddf252ad1be2c89b69c2b068fc378daa952ba7f163c4a11628f55a4df523b3ef60405160405180910390a461101b8383836001611895565b505050565b6110298161189b565b50565b60006002600083815260200190815260200160002060009054906101000a900473ffffffffffffffffffffffffffffffffffffffff169050919050565b611071610bd1565b73ffffffffffffffffffffffffffffffffffffffff1661108f610888565b73ffffffffffffffffffffffffffffffffffffffff16146110e5576040517f08c379a00000000000000000000000000000000000000000000000000000000081526004016110dc90612bac565b60405180910390fd5b565b6000600760009054906101000a900473ffffffffffffffffffffffffffffffffffffffff16905081600760006101000a81548173ffffffffffffffffffffffffffffffffffffffff021916908373ffffffffffffffffffffffffffffffffffffffff1602179055508173ffffffffffffffffffffffffffffffffffffffff168173ffffffffffffffffffffffffffffffffffffffff167f8be0079c531659141344cd1fd0a4f28419497f9722a3daafe3b4186f6b6457e060405160405180910390a35050565b8173ffffffffffffffffffffffffffffffffffffffff168373ffffffffffffffffffffffffffffffffffffffff160361121b576040517f08c379a000000000000000000000000000000000000000000000000000000000815260040161121290612c18565b60405180910390fd5b80600560008573ffffffffffffffffffffffffffffffffffffffff1673ffffffffffffffffffffffffffffffffffffffff16815260200190815260200160002060008473ffffffffffffffffffffffffffffffffffffffff1673ffffffffffffffffffffffffffffffffffffffff16815260200190815260200160002060006101000a81548160ff0219169083151502179055508173ffffffffffffffffffffffffffffffffffffffff168373ffffffffffffffffffffffffffffffffffffffff167f17307eab39ab6107e8899845ad3d59bd9653f200f220920489ca2b5937696c318360405161130c9190612001565b60405180910390a3505050565b611324848484610d27565b611330848484846118ee565b61136f576040517f08c379a000000000000000000000000000000000000000000000000000000000815260040161136690612caa565b60405180910390fd5b50505050565b606061138082610b86565b60006006600084815260200190815260200160002080546113a090612633565b80601f01602080910402602001604051908101604052809291908181526020018280546113cc90612633565b80156114195780601f106113ee57610100808354040283529160200191611419565b820191906000526020600020905b8154815290600101906020018083116113fc57829003601f168201915b50505050509050600061142a611a75565b9050600081510361143f578192505050611482565b60008251111561147457808260405160200161145c929190612d06565b60405160208183030381529060405292505050611482565b61147d84611a8c565b925050505b919050565b6001816000016000828254019250508190555050565b600081600001549050919050565b600073ffffffffffffffffffffffffffffffffffffffff168273ffffffffffffffffffffffffffffffffffffffff160361151a576040517f08c379a000000000000000000000000000000000000000000000000000000000815260040161151190612d76565b60405180910390fd5b6115238161184e565b15611563576040517f08c379a000000000000000000000000000000000000000000000000000000000815260040161155a90612de2565b60405180910390fd5b61157160008383600161188f565b61157a8161184e565b156115ba576040517f08c379a00000000000000000000000000000000000000000000000000000000081526004016115b190612de2565b60405180910390fd5b6001600360008473ffffffffffffffffffffffffffffffffffffffff1673ffffffffffffffffffffffffffffffffffffffff16815260200190815260200160002060008282540192505081905550816002600083815260200190815260200160002060006101000a81548173ffffffffffffffffffffffffffffffffffffffff021916908373ffffffffffffffffffffffffffffffffffffffff160217905550808273ffffffffffffffffffffffffffffffffffffffff16600073ffffffffffffffffffffffffffffffffffffffff167fddf252ad1be2c89b69c2b068fc378daa952ba7f163c4a11628f55a4df523b3ef60405160405180910390a46116c4600083836001611895565b5050565b6116d18261184e565b611710576040517f08c379a000000000000000000000000000000000000000000000000000000000815260040161170790612e74565b60405180910390fd5b806006600084815260200190815260200160002090816117309190613040565b507ff8e1a15aba9398e019f0b49df1a4fde98ee17ae345cb5f6b5e2c27f5033e8ce7826040516117609190612288565b60405180910390a15050565b60007f80ac58cd000000000000000000000000000000000000000000000000000000007bffffffffffffffffffffffffffffffffffffffffffffffffffffffff1916827bffffffffffffffffffffffffffffffffffffffffffffffffffffffff1916148061183757507f5b5e139f000000000000000000000000000000000000000000000000000000007bffffffffffffffffffffffffffffffffffffffffffffffffffffffff1916827bffffffffffffffffffffffffffffffffffffffffffffffffffffffff1916145b80611847575061184682611af4565b5b9050919050565b60008073ffffffffffffffffffffffffffffffffffffffff166118708361102c565b73ffffffffffffffffffffffffffffffffffffffff1614159050919050565b50505050565b50505050565b6118a481611b5e565b60006006600083815260200190815260200160002080546118c490612633565b9050146118eb576006600082815260200190815260200160002060006118ea9190611ef0565b5b50565b600061190f8473ffffffffffffffffffffffffffffffffffffffff16611cac565b15611a68578373ffffffffffffffffffffffffffffffffffffffff1663150b7a02611938610bd1565b8786866040518563ffffffff1660e01b815260040161195a9493929190613167565b6020604051808303816000875af192505050801561199657506040513d601f19601f8201168201806040525081019061199391906131c8565b60015b611a18573d80600081146119c6576040519150601f19603f3d011682016040523d82523d6000602084013e6119cb565b606091505b506000815103611a10576040517f08c379a0000000000000000000000000000000000000000000000000000000008152600401611a0790612caa565b60405180910390fd5b805181602001fd5b63150b7a0260e01b7bffffffffffffffffffffffffffffffffffffffffffffffffffffffff1916817bffffffffffffffffffffffffffffffffffffffffffffffffffffffff191614915050611a6d565b600190505b949350505050565b606060405180602001604052806000815250905090565b6060611a9782610b86565b6000611aa1611a75565b90506000815111611ac15760405180602001604052806000815250611aec565b80611acb84611ccf565b604051602001611adc929190612d06565b6040516020818303038152906040525b915050919050565b60007f01ffc9a7000000000000000000000000000000000000000000000000000000007bffffffffffffffffffffffffffffffffffffffffffffffffffffffff1916827bffffffffffffffffffffffffffffffffffffffffffffffffffffffff1916149050919050565b6000611b6982610737565b9050611b7981600084600161188f565b611b8282610737565b90506004600083815260200190815260200160002060006101000a81549073ffffffffffffffffffffffffffffffffffffffff02191690556001600360008373ffffffffffffffffffffffffffffffffffffffff1673ffffffffffffffffffffffffffffffffffffffff168152602001908152602001600020600082825403925050819055506002600083815260200190815260200160002060006101000a81549073ffffffffffffffffffffffffffffffffffffffff021916905581600073ffffffffffffffffffffffffffffffffffffffff168273ffffffffffffffffffffffffffffffffffffffff167fddf252ad1be2c89b69c2b068fc378daa952ba7f163c4a11628f55a4df523b3ef60405160405180910390a4611ca8816000846001611895565b5050565b6000808273ffffffffffffffffffffffffffffffffffffffff163b119050919050565b606060006001611cde84611d9d565b01905060008167ffffffffffffffff811115611cfd57611cfc612319565b5b6040519080825280601f01601f191660200182016040528015611d2f5781602001600182028036833780820191505090505b509050600082602001820190505b600115611d92578080600190039150507f3031323334353637383961626364656600000000000000000000000000000000600a86061a8153600a8581611d8657611d856131f5565b5b04945060008503611d3d575b819350505050919050565b600080600090507a184f03e93ff9f4daa797ed6e38ed64bf6a1f0100000000000000008310611dfb577a184f03e93ff9f4daa797ed6e38ed64bf6a1f0100000000000000008381611df157611df06131f5565b5b0492506040810190505b6d04ee2d6d415b85acef81000000008310611e38576d04ee2d6d415b85acef81000000008381611e2e57611e2d6131f5565b5b0492506020810190505b662386f26fc100008310611e6757662386f26fc100008381611e5d57611e5c6131f5565b5b0492506010810190505b6305f5e1008310611e90576305f5e1008381611e8657611e856131f5565b5b0492506008810190505b6127108310611eb5576127108381611eab57611eaa6131f5565b5b0492506004810190505b60648310611ed85760648381611ece57611ecd6131f5565b5b0492506002810190505b600a8310611ee7576001810190505b80915050919050565b508054611efc90612633565b6000825580601f10611f0e5750611f2d565b601f016020900490600052602060002090810190611f2c9190611f30565b5b50565b5b80821115611f49576000816000905550600101611f31565b5090565b6000604051905090565b600080fd5b600080fd5b60007fffffffff0000000000000000000000000000000000000000000000000000000082169050919050565b611f9681611f61565b8114611fa157600080fd5b50565b600081359050611fb381611f8d565b92915050565b600060208284031215611fcf57611fce611f57565b5b6000611fdd84828501611fa4565b91505092915050565b60008115159050919050565b611ffb81611fe6565b82525050565b60006020820190506120166000830184611ff2565b92915050565b600081519050919050565b600082825260208201905092915050565b60005b8381101561205657808201518184015260208101905061203b565b60008484015250505050565b6000601f19601f8301169050919050565b600061207e8261201c565b6120888185612027565b9350612098818560208601612038565b6120a181612062565b840191505092915050565b600060208201905081810360008301526120c68184612073565b905092915050565b6000819050919050565b6120e1816120ce565b81146120ec57600080fd5b50565b6000813590506120fe816120d8565b92915050565b60006020828403121561211a57612119611f57565b5b6000612128848285016120ef565b91505092915050565b600073ffffffffffffffffffffffffffffffffffffffff82169050919050565b600061215c82612131565b9050919050565b61216c81612151565b82525050565b60006020820190506121876000830184612163565b92915050565b61219681612151565b81146121a157600080fd5b50565b6000813590506121b38161218d565b92915050565b600080604083850312156121d0576121cf611f57565b5b60006121de858286016121a4565b92505060206121ef858286016120ef565b9150509250929050565b60008060006060848603121561221257612211611f57565b5b6000612220868287016121a4565b9350506020612231868287016121a4565b9250506040612242868287016120ef565b9150509250925092565b60006020828403121561226257612261611f57565b5b6000612270848285016121a4565b91505092915050565b612282816120ce565b82525050565b600060208201905061229d6000830184612279565b92915050565b6122ac81611fe6565b81146122b757600080fd5b50565b6000813590506122c9816122a3565b92915050565b600080604083850312156122e6576122e5611f57565b5b60006122f4858286016121a4565b9250506020612305858286016122ba565b9150509250929050565b600080fd5b600080fd5b7f4e487b7100000000000000000000000000000000000000000000000000000000600052604160045260246000fd5b61235182612062565b810181811067ffffffffffffffff821117156123705761236f612319565b5b80604052505050565b6000612383611f4d565b905061238f8282612348565b919050565b600067ffffffffffffffff8211156123af576123ae612319565b5b6123b882612062565b9050602081019050919050565b82818337600083830152505050565b60006123e76123e284612394565b612379565b90508281526020810184848401111561240357612402612314565b5b61240e8482856123c5565b509392505050565b600082601f83011261242b5761242a61230f565b5b813561243b8482602086016123d4565b91505092915050565b6000806000806080858703121561245e5761245d611f57565b5b600061246c878288016121a4565b945050602061247d878288016121a4565b935050604061248e878288016120ef565b925050606085013567ffffffffffffffff8111156124af576124ae611f5c565b5b6124bb87828801612416565b91505092959194509250565b600080604083850312156124de576124dd611f57565b5b60006124ec858286016121a4565b92505060206124fd858286016121a4565b9150509250929050565b600067ffffffffffffffff82111561252257612521612319565b5b61252b82612062565b9050602081019050919050565b600061254b61254684612507565b612379565b90508281526020810184848401111561256757612566612314565b5b6125728482856123c5565b509392505050565b600082601f83011261258f5761258e61230f565b5b813561259f848260208601612538565b91505092915050565b600080604083850312156125bf576125be611f57565b5b60006125cd858286016121a4565b925050602083013567ffffffffffffffff8111156125ee576125ed611f5c565b5b6125fa8582860161257a565b9150509250929050565b7f4e487b7100000000000000000000000000000000000000000000000000000000600052602260045260246000fd5b6000600282049050600182168061264b57607f821691505b60208210810361265e5761265d612604565b5b50919050565b7f4552433732313a20617070726f76616c20746f2063757272656e74206f776e6560008201527f7200000000000000000000000000000000000000000000000000000000000000602082015250565b60006126c0602183612027565b91506126cb82612664565b604082019050919050565b600060208201905081810360008301526126ef816126b3565b9050919050565b7f4552433732313a20617070726f76652063616c6c6572206973206e6f7420746f60008201527f6b656e206f776e6572206f7220617070726f76656420666f7220616c6c000000602082015250565b6000612752603d83612027565b915061275d826126f6565b604082019050919050565b6000602082019050818103600083015261278181612745565b9050919050565b7f4552433732313a2063616c6c6572206973206e6f7420746f6b656e206f776e6560008201527f72206f7220617070726f76656400000000000000000000000000000000000000602082015250565b60006127e4602d83612027565b91506127ef82612788565b604082019050919050565b60006020820190508181036000830152612813816127d7565b9050919050565b7f43616c6c6572206973206e6f7420746f6b656e206f776e65722c20617070726f60008201527f7665642c206f7220636f6e7472616374206f776e657200000000000000000000602082015250565b6000612876603683612027565b91506128818261281a565b604082019050919050565b600060208201905081810360008301526128a581612869565b9050919050565b7f4552433732313a20696e76616c696420746f6b656e2049440000000000000000600082015250565b60006128e2601883612027565b91506128ed826128ac565b602082019050919050565b60006020820190508181036000830152612911816128d5565b9050919050565b7f4552433732313a2061646472657373207a65726f206973206e6f74206120766160008201527f6c6964206f776e65720000000000000000000000000000000000000000000000602082015250565b6000612974602983612027565b915061297f82612918565b604082019050919050565b600060208201905081810360008301526129a381612967565b9050919050565b7f4f776e61626c653a206e6577206f776e657220697320746865207a65726f206160008201527f6464726573730000000000000000000000000000000000000000000000000000602082015250565b6000612a06602683612027565b9150612a11826129aa565b604082019050919050565b60006020820190508181036000830152612a35816129f9565b9050919050565b7f4552433732313a207472616e736665722066726f6d20696e636f72726563742060008201527f6f776e6572000000000000000000000000000000000000000000000000000000602082015250565b6000612a98602583612027565b9150612aa382612a3c565b604082019050919050565b60006020820190508181036000830152612ac781612a8b565b9050919050565b7f4552433732313a207472616e7366657220746f20746865207a65726f2061646460008201527f7265737300000000000000000000000000000000000000000000000000000000602082015250565b6000612b2a602483612027565b9150612b3582612ace565b604082019050919050565b60006020820190508181036000830152612b5981612b1d565b9050919050565b7f4f776e61626c653a2063616c6c6572206973206e6f7420746865206f776e6572600082015250565b6000612b96602083612027565b9150612ba182612b60565b602082019050919050565b60006020820190508181036000830152612bc581612b89565b9050919050565b7f4552433732313a20617070726f766520746f2063616c6c657200000000000000600082015250565b6000612c02601983612027565b9150612c0d82612bcc565b602082019050919050565b60006020820190508181036000830152612c3181612bf5565b9050919050565b7f4552433732313a207472616e7366657220746f206e6f6e20455243373231526560008201527f63656976657220696d706c656d656e7465720000000000000000000000000000602082015250565b6000612c94603283612027565b9150612c9f82612c38565b604082019050919050565b60006020820190508181036000830152612cc381612c87565b9050919050565b600081905092915050565b6000612ce08261201c565b612cea8185612cca565b9350612cfa818560208601612038565b80840191505092915050565b6000612d128285612cd5565b9150612d1e8284612cd5565b91508190509392505050565b7f4552433732313a206d696e7420746f20746865207a65726f2061646472657373600082015250565b6000612d60602083612027565b9150612d6b82612d2a565b602082019050919050565b60006020820190508181036000830152612d8f81612d53565b9050919050565b7f4552433732313a20746f6b656e20616c7265616479206d696e74656400000000600082015250565b6000612dcc601c83612027565b9150612dd782612d96565b602082019050919050565b60006020820190508181036000830152612dfb81612dbf565b9050919050565b7f45524337323155524953746f726167653a2055524920736574206f66206e6f6e60008201527f6578697374656e7420746f6b656e000000000000000000000000000000000000602082015250565b6000612e5e602e83612027565b9150612e6982612e02565b604082019050919050565b60006020820190508181036000830152612e8d81612e51565b9050919050565b60008190508160005260206000209050919050565b60006020601f8301049050919050565b600082821b905092915050565b600060088302612ef67fffffffffffffffffffffffffffffffffffffffffffffffffffffffffffffffff82612eb9565b612f008683612eb9565b95508019841693508086168417925050509392505050565b6000819050919050565b6000612f3d612f38612f33846120ce565b612f18565b6120ce565b9050919050565b6000819050919050565b612f5783612f22565b612f6b612f6382612f44565b848454612ec6565b825550505050565b600090565b612f80612f73565b612f8b818484612f4e565b505050565b5b81811015612faf57612fa4600082612f78565b600181019050612f91565b5050565b601f821115612ff457612fc581612e94565b612fce84612ea9565b81016020851015612fdd578190505b612ff1612fe985612ea9565b830182612f90565b50505b505050565b600082821c905092915050565b600061301760001984600802612ff9565b1980831691505092915050565b60006130308383613006565b9150826002028217905092915050565b6130498261201c565b67ffffffffffffffff81111561306257613061612319565b5b61306c8254612633565b613077828285612fb3565b600060209050601f8311600181146130aa5760008415613098578287015190505b6130a28582613024565b86555061310a565b601f1984166130b886612e94565b60005b828110156130e0578489015182556001820191506020850194506020810190506130bb565b868310156130fd57848901516130f9601f891682613006565b8355505b6001600288020188555050505b505050505050565b600081519050919050565b600082825260208201905092915050565b600061313982613112565b613143818561311d565b9350613153818560208601612038565b61315c81612062565b840191505092915050565b600060808201905061317c6000830187612163565b6131896020830186612163565b6131966040830185612279565b81810360608301526131a8818461312e565b905095945050505050565b6000815190506131c281611f8d565b92915050565b6000602082840312156131de576131dd611f57565b5b60006131ec848285016131b3565b91505092915050565b7f4e487b7100000000000000000000000000000000000000000000000000000000600052601260045260246000fdfea2646970667358221220b9d9cd09d44f2a372f350bc326c4d02015cd0372156bb662d5f822921c176abe64736f6c634300081c0033",
  "linkReferences": {},
  "deployedLinkReferences": {}
}